{
  "contractName": "PauserRole",
  "abi": [
    {
      "anonymous": false,
      "inputs": [
        {
          "indexed": true,
          "name": "account",
          "type": "address"
        }
      ],
      "name": "PauserAdded",
      "type": "event"
    },
    {
      "anonymous": false,
      "inputs": [
        {
          "indexed": true,
          "name": "account",
          "type": "address"
        }
      ],
      "name": "PauserRemoved",
      "type": "event"
    },
    {
      "constant": false,
      "inputs": [
        {
          "name": "sender",
          "type": "address"
        }
      ],
      "name": "initialize",
      "outputs": [],
      "payable": false,
      "stateMutability": "nonpayable",
      "type": "function"
    },
    {
      "constant": true,
      "inputs": [
        {
          "name": "account",
          "type": "address"
        }
      ],
      "name": "isPauser",
      "outputs": [
        {
          "name": "",
          "type": "bool"
        }
      ],
      "payable": false,
      "stateMutability": "view",
      "type": "function"
    },
    {
      "constant": false,
      "inputs": [
        {
          "name": "account",
          "type": "address"
        }
      ],
      "name": "addPauser",
      "outputs": [],
      "payable": false,
      "stateMutability": "nonpayable",
      "type": "function"
    },
    {
      "constant": false,
      "inputs": [],
      "name": "renouncePauser",
      "outputs": [],
      "payable": false,
      "stateMutability": "nonpayable",
      "type": "function"
    }
  ],
  "bytecode": "0x608060405234801561001057600080fd5b506104bf806100206000396000f3fe608060405234801561001057600080fd5b5060043610610068577c0100000000000000000000000000000000000000000000000000000000600035046346fbf68e811461006d5780636ef8d66d146100a757806382dc1ec4146100b1578063c4d66de8146100d7575b600080fd5b6100936004803603602081101561008357600080fd5b5035600160a060020a03166100fd565b604080519115158252519081900360200190f35b6100af610116565b005b6100af600480360360208110156100c757600080fd5b5035600160a060020a0316610121565b6100af600480360360208110156100ed57600080fd5b5035600160a060020a031661018c565b600061011060338363ffffffff61024616565b92915050565b61011f336102c8565b565b61012a336100fd565b1515610180576040805160e560020a62461bcd02815260206004820152601b60248201527f4163636f756e7420686173206e6f2050617573657220726f6c652e0000000000604482015290519081900360640190fd5b61018981610310565b50565b600054610100900460ff16806101a557506101a5610358565b806101b3575060005460ff16155b15156101f35760405160e560020a62461bcd02815260040180806020018281038252602e815260200180610466602e913960400191505060405180910390fd5b60008054600161010061ff00198316811760ff1916919091179092550460ff1661021c826100fd565b151561022b5761022b82610310565b600080549115156101000261ff001990921691909117905550565b6000600160a060020a03821615156102a8576040805160e560020a62461bcd02815260206004820152601860248201527f43616e6e6f7420616464207a65726f20616464726573732e0000000000000000604482015290519081900360640190fd5b50600160a060020a03166000908152602091909152604090205460ff1690565b6102d960338263ffffffff61035e16565b604051600160a060020a038216907fcd265ebaf09df2871cc7bd4133404a235ba12eff2041bb89d9c714a2621c7c7e90600090a250565b61032160338263ffffffff6103e016565b604051600160a060020a038216907f6719d08c1888103bea251a4ed56406bd0c3e69723c8a1686e017e7bbe159b6f890600090a250565b303b1590565b600160a060020a03811615156103be576040805160e560020a62461bcd02815260206004820152601860248201527f43616e6e6f7420616464207a65726f20616464726573732e0000000000000000604482015290519081900360640190fd5b600160a060020a0316600090815260209190915260409020805460ff19169055565b600160a060020a0381161515610440576040805160e560020a62461bcd02815260206004820152601860248201527f43616e6e6f7420616464207a65726f20616464726573732e0000000000000000604482015290519081900360640190fd5b600160a060020a0316600090815260209190915260409020805460ff1916600117905556fe436f6e747261637420696e7374616e63652068617320616c7265616479206265656e20696e697469616c697a6564a165627a7a7230582009672021d600871a8116c4296f50bc6113c69d4cf01df3e4c868490974511a350029",
  "source": "pragma solidity ^0.5.0;\n\nimport \"zos-lib/contracts/Initializable.sol\";\nimport \"../Roles.sol\";\n\n\ncontract PauserRole is Initializable {\n    using Roles for Roles.Role;\n\n    event PauserAdded(address indexed account);\n    event PauserRemoved(address indexed account);\n\n    Roles.Role private pausers;\n\n    function initialize(address sender) public initializer {\n        if (!isPauser(sender)) {\n            _addPauser(sender);\n        }\n    }\n\n    modifier onlyPauser() {\n        require(isPauser(msg.sender), \"Account has no Pauser role.\");\n        _;\n    }\n\n    function isPauser(address account) public view returns (bool) {\n        return pausers.has(account);\n    }\n\n    function addPauser(address account) public onlyPauser {\n        _addPauser(account);\n    }\n\n    function renouncePauser() public {\n        _removePauser(msg.sender);\n    }\n\n    function _addPauser(address account) internal {\n        pausers.add(account);\n        emit PauserAdded(account);\n    }\n\n    function _removePauser(address account) internal {\n        pausers.remove(account);\n        emit PauserRemoved(account);\n    }\n\n    uint256[50] private ______gap;\n}\n",
  "sourcePath": "/Users/davidminarsch/final-project-DavidMinarsch/installed_contracts/access/roles/PauserRole.sol",
  "compiler": {
    "name": "solc",
    "version": "0.5.2+commit.1df8f40c.Emscripten.clang"
  },
  "schemaVersion": "3.0.0",
  "updatedAt": "2019-01-22T18:54:04.801Z",
  "devdoc": {
    "methods": {}
  },
  "userdoc": {
    "methods": {}
  }
}