{
  "contractName": "Pausable",
  "abi": [
    {
      "constant": true,
      "inputs": [
        {
          "name": "account",
          "type": "address"
        }
      ],
      "name": "isPauser",
      "outputs": [
        {
          "name": "",
          "type": "bool"
        }
      ],
      "payable": false,
      "stateMutability": "view",
      "type": "function"
    },
    {
      "constant": false,
      "inputs": [],
      "name": "renouncePauser",
      "outputs": [],
      "payable": false,
      "stateMutability": "nonpayable",
      "type": "function"
    },
    {
      "constant": false,
      "inputs": [
        {
          "name": "account",
          "type": "address"
        }
      ],
      "name": "addPauser",
      "outputs": [],
      "payable": false,
      "stateMutability": "nonpayable",
      "type": "function"
    },
    {
      "anonymous": false,
      "inputs": [],
      "name": "Paused",
      "type": "event"
    },
    {
      "anonymous": false,
      "inputs": [],
      "name": "Unpaused",
      "type": "event"
    },
    {
      "anonymous": false,
      "inputs": [
        {
          "indexed": true,
          "name": "account",
          "type": "address"
        }
      ],
      "name": "PauserAdded",
      "type": "event"
    },
    {
      "anonymous": false,
      "inputs": [
        {
          "indexed": true,
          "name": "account",
          "type": "address"
        }
      ],
      "name": "PauserRemoved",
      "type": "event"
    },
    {
      "constant": false,
      "inputs": [
        {
          "name": "sender",
          "type": "address"
        }
      ],
      "name": "initialize",
      "outputs": [],
      "payable": false,
      "stateMutability": "nonpayable",
      "type": "function"
    },
    {
      "constant": true,
      "inputs": [],
      "name": "paused",
      "outputs": [
        {
          "name": "",
          "type": "bool"
        }
      ],
      "payable": false,
      "stateMutability": "view",
      "type": "function"
    },
    {
      "constant": false,
      "inputs": [],
      "name": "pause",
      "outputs": [],
      "payable": false,
      "stateMutability": "nonpayable",
      "type": "function"
    },
    {
      "constant": false,
      "inputs": [],
      "name": "unpause",
      "outputs": [],
      "payable": false,
      "stateMutability": "nonpayable",
      "type": "function"
    }
  ],
  "bytecode": "0x60806040526066805460ff1916905534801561001a57600080fd5b5061055a8061002a6000396000f3fe608060405234801561001057600080fd5b506004361061009a576000357c0100000000000000000000000000000000000000000000000000000000900480636ef8d66d116100785780636ef8d66d146100eb57806382dc1ec4146100f35780638456cb5914610119578063c4d66de8146101215761009a565b80633f4ba83a1461009f57806346fbf68e146100a95780635c975abb146100e3575b600080fd5b6100a7610147565b005b6100cf600480360360208110156100bf57600080fd5b5035600160a060020a03166101a1565b604080519115158252519081900360200190f35b6100cf6101ba565b6100a76101c3565b6100a76004803603602081101561010957600080fd5b5035600160a060020a03166101ce565b6100a76101ee565b6100a76004803603602081101561013757600080fd5b5035600160a060020a031661024a565b610150336101a1565b151561015b57600080fd5b60665460ff16151561016c57600080fd5b6066805460ff191690556040517fa45f47fdea8a1efdd9029a5691c7f759c32b7c698632b563573e155625d1693390600090a1565b60006101b460338363ffffffff61030c16565b92915050565b60665460ff1690565b6101cc33610343565b565b6101d7336101a1565b15156101e257600080fd5b6101eb8161038b565b50565b6101f7336101a1565b151561020257600080fd5b60665460ff161561021257600080fd5b6066805460ff191660011790556040517f9e87fac88ff661f02d44f95383c817fece4bce600a3dab7a54406878b965e75290600090a1565b600054610100900460ff168061026357506102636103d3565b80610271575060005460ff16155b15156102c8576040517f08c379a000000000000000000000000000000000000000000000000000000000815260040180806020018281038252602e815260200180610501602e913960400191505060405180910390fd5b60008054600161010061ff00198316811760ff1916919091179092550460ff166102f1826103d9565b600080549115156101000261ff001990921691909117905550565b6000600160a060020a038216151561032357600080fd5b50600160a060020a03166000908152602091909152604090205460ff1690565b61035460338263ffffffff61048f16565b604051600160a060020a038216907fcd265ebaf09df2871cc7bd4133404a235ba12eff2041bb89d9c714a2621c7c7e90600090a250565b61039c60338263ffffffff6104c616565b604051600160a060020a038216907f6719d08c1888103bea251a4ed56406bd0c3e69723c8a1686e017e7bbe159b6f890600090a250565b303b1590565b600054610100900460ff16806103f257506103f26103d3565b80610400575060005460ff16155b1515610457576040517f08c379a000000000000000000000000000000000000000000000000000000000815260040180806020018281038252602e815260200180610501602e913960400191505060405180910390fd5b60008054600161010061ff00198316811760ff1916919091179092550460ff16610480826101a1565b15156102f1576102f18261038b565b600160a060020a03811615156104a457600080fd5b600160a060020a0316600090815260209190915260409020805460ff19169055565b600160a060020a03811615156104db57600080fd5b600160a060020a0316600090815260209190915260409020805460ff1916600117905556fe436f6e747261637420696e7374616e63652068617320616c7265616479206265656e20696e697469616c697a6564a165627a7a72305820dc811387676ddb71a49eb99853e55eae90d973b66abbcc3c01c25e2c619f6dcb0029",
  "source": "pragma solidity ^0.5.0;\n\nimport \"zos-lib/contracts/Initializable.sol\";\nimport \"../access/roles/PauserRole.sol\";\n\n\n/**\n * @title Pausable\n * @dev Base contract which allows children to implement an emergency stop mechanism.\n */\ncontract Pausable is Initializable, PauserRole {\n  event Paused();\n  event Unpaused();\n\n  bool private _paused = false;\n\n  function initialize(address sender) public initializer {\n    PauserRole.initialize(sender);\n  }\n\n  /**\n   * @return true if the contract is paused, false otherwise.\n   */\n  function paused() public view returns(bool) {\n    return _paused;\n  }\n\n  /**\n   * @dev Modifier to make a function callable only when the contract is not paused.\n   */\n  modifier whenNotPaused() {\n    require(!_paused);\n    _;\n  }\n\n  /**\n   * @dev Modifier to make a function callable only when the contract is paused.\n   */\n  modifier whenPaused() {\n    require(_paused);\n    _;\n  }\n\n  /**\n   * @dev called by the owner to pause, triggers stopped state\n   */\n  function pause() public onlyPauser whenNotPaused {\n    _paused = true;\n    emit Paused();\n  }\n\n  /**\n   * @dev called by the owner to unpause, returns to normal state\n   */\n  function unpause() public onlyPauser whenPaused {\n    _paused = false;\n    emit Unpaused();\n  }\n\n  uint256[50] private ______gap;\n}\n",
  "sourcePath": "/Users/davidminarsch/final-project-DavidMinarsch/installed_contracts/lifecycle/Pausable.sol",
  "compiler": {
    "name": "solc",
    "version": "0.5.2+commit.1df8f40c.Emscripten.clang"
  },
  "schemaVersion": "3.0.1",
  "updatedAt": "2019-01-21T13:15:50.050Z",
  "devdoc": {
    "details": "Base contract which allows children to implement an emergency stop mechanism.",
    "methods": {
      "pause()": {
        "details": "called by the owner to pause, triggers stopped state"
      },
      "paused()": {
        "return": "true if the contract is paused, false otherwise."
      },
      "unpause()": {
        "details": "called by the owner to unpause, returns to normal state"
      }
    },
    "title": "Pausable"
  },
  "userdoc": {
    "methods": {}
  }
}