{
  "contractName": "Pausable",
  "abi": [
    {
      "constant": true,
      "inputs": [
        {
          "name": "account",
          "type": "address"
        }
      ],
      "name": "isPauser",
      "outputs": [
        {
          "name": "",
          "type": "bool"
        }
      ],
      "payable": false,
      "stateMutability": "view",
      "type": "function"
    },
    {
      "constant": false,
      "inputs": [],
      "name": "renouncePauser",
      "outputs": [],
      "payable": false,
      "stateMutability": "nonpayable",
      "type": "function"
    },
    {
      "constant": false,
      "inputs": [
        {
          "name": "account",
          "type": "address"
        }
      ],
      "name": "addPauser",
      "outputs": [],
      "payable": false,
      "stateMutability": "nonpayable",
      "type": "function"
    },
    {
      "anonymous": false,
      "inputs": [],
      "name": "LogPaused",
      "type": "event"
    },
    {
      "anonymous": false,
      "inputs": [],
      "name": "LogUnpaused",
      "type": "event"
    },
    {
      "anonymous": false,
      "inputs": [
        {
          "indexed": true,
          "name": "account",
          "type": "address"
        }
      ],
      "name": "PauserAdded",
      "type": "event"
    },
    {
      "anonymous": false,
      "inputs": [
        {
          "indexed": true,
          "name": "account",
          "type": "address"
        }
      ],
      "name": "PauserRemoved",
      "type": "event"
    },
    {
      "constant": false,
      "inputs": [
        {
          "name": "sender",
          "type": "address"
        }
      ],
      "name": "initialize",
      "outputs": [],
      "payable": false,
      "stateMutability": "nonpayable",
      "type": "function"
    },
    {
      "constant": true,
      "inputs": [],
      "name": "paused",
      "outputs": [
        {
          "name": "",
          "type": "bool"
        }
      ],
      "payable": false,
      "stateMutability": "view",
      "type": "function"
    },
    {
      "constant": false,
      "inputs": [],
      "name": "pause",
      "outputs": [],
      "payable": false,
      "stateMutability": "nonpayable",
      "type": "function"
    },
    {
      "constant": false,
      "inputs": [],
      "name": "unpause",
      "outputs": [],
      "payable": false,
      "stateMutability": "nonpayable",
      "type": "function"
    }
  ],
  "bytecode": "0x60806040526066805460ff1916905534801561001a57600080fd5b506107848061002a6000396000f3fe608060405234801561001057600080fd5b506004361061009a576000357c0100000000000000000000000000000000000000000000000000000000900480636ef8d66d116100785780636ef8d66d146100eb57806382dc1ec4146100f35780638456cb5914610119578063c4d66de8146101215761009a565b80633f4ba83a1461009f57806346fbf68e146100a95780635c975abb146100e3575b600080fd5b6100a7610147565b005b6100cf600480360360208110156100bf57600080fd5b5035600160a060020a0316610237565b604080519115158252519081900360200190f35b6100cf610250565b6100a7610259565b6100a76004803603602081101561010957600080fd5b5035600160a060020a0316610264565b6100a76102cf565b6100a76004803603602081101561013757600080fd5b5035600160a060020a03166103c1565b61015033610237565b15156101a6576040805160e560020a62461bcd02815260206004820152601b60248201527f4163636f756e7420686173206e6f2050617573657220726f6c652e0000000000604482015290519081900360640190fd5b60665460ff161515610202576040805160e560020a62461bcd02815260206004820152600f60248201527f4d757374206265207061757365642e0000000000000000000000000000000000604482015290519081900360640190fd5b6066805460ff191690556040517f49abf6fd2c0eb39a7c6c4c5fbdc6ba8711ab69ebbc4153dd9abff12ba2dc4c9890600090a1565b600061024a60338363ffffffff61046c16565b92915050565b60665460ff1690565b610262336104ee565b565b61026d33610237565b15156102c3576040805160e560020a62461bcd02815260206004820152601b60248201527f4163636f756e7420686173206e6f2050617573657220726f6c652e0000000000604482015290519081900360640190fd5b6102cc81610536565b50565b6102d833610237565b151561032e576040805160e560020a62461bcd02815260206004820152601b60248201527f4163636f756e7420686173206e6f2050617573657220726f6c652e0000000000604482015290519081900360640190fd5b60665460ff1615610389576040805160e560020a62461bcd02815260206004820152601160248201527f43616e6e6f74206265207061757365642e000000000000000000000000000000604482015290519081900360640190fd5b6066805460ff191660011790556040517f777ecb744cfc69794c3985ebff0496449aafc907c556f1d4003201beb364e80f90600090a1565b600054610100900460ff16806103da57506103da61057e565b806103e8575060005460ff16155b15156104285760405160e560020a62461bcd02815260040180806020018281038252602e81526020018061072b602e913960400191505060405180910390fd5b60008054600161010061ff00198316811760ff1916919091179092550460ff1661045182610584565b600080549115156101000261ff001990921691909117905550565b6000600160a060020a03821615156104ce576040805160e560020a62461bcd02815260206004820152601860248201527f43616e6e6f7420616464207a65726f20616464726573732e0000000000000000604482015290519081900360640190fd5b50600160a060020a03166000908152602091909152604090205460ff1690565b6104ff60338263ffffffff61062316565b604051600160a060020a038216907fcd265ebaf09df2871cc7bd4133404a235ba12eff2041bb89d9c714a2621c7c7e90600090a250565b61054760338263ffffffff6106a516565b604051600160a060020a038216907f6719d08c1888103bea251a4ed56406bd0c3e69723c8a1686e017e7bbe159b6f890600090a250565b303b1590565b600054610100900460ff168061059d575061059d61057e565b806105ab575060005460ff16155b15156105eb5760405160e560020a62461bcd02815260040180806020018281038252602e81526020018061072b602e913960400191505060405180910390fd5b60008054600161010061ff00198316811760ff1916919091179092550460ff1661061482610237565b15156104515761045182610536565b600160a060020a0381161515610683576040805160e560020a62461bcd02815260206004820152601860248201527f43616e6e6f7420616464207a65726f20616464726573732e0000000000000000604482015290519081900360640190fd5b600160a060020a0316600090815260209190915260409020805460ff19169055565b600160a060020a0381161515610705576040805160e560020a62461bcd02815260206004820152601860248201527f43616e6e6f7420616464207a65726f20616464726573732e0000000000000000604482015290519081900360640190fd5b600160a060020a0316600090815260209190915260409020805460ff1916600117905556fe436f6e747261637420696e7374616e63652068617320616c7265616479206265656e20696e697469616c697a6564a165627a7a72305820c8c786f404bfa97177b619062fb9e4229fd27f92133def9e8acf6dad8983e8cf0029",
  "source": "pragma solidity ^0.5.0;\n\nimport \"zos-lib/contracts/Initializable.sol\";\nimport \"../access/roles/PauserRole.sol\";\n\n\n/**\n * @title Pausable\n * @dev Base contract which allows children to implement an emergency stop mechanism.\n */\ncontract Pausable is Initializable, PauserRole {\n    event LogPaused();\n    event LogUnpaused();\n\n    bool private _paused = false;\n\n    function initialize(address sender) public initializer {\n        PauserRole.initialize(sender);\n    }\n\n    /**\n      * @return true if the contract is paused, false otherwise.\n    */\n    function paused() public view returns(bool) {\n        return _paused;\n    }\n\n    /**\n      * @dev Modifier to make a function callable only when the contract is not paused.\n    */\n    modifier whenNotPaused() {\n        require(!_paused, \"Cannot be paused.\");\n        _;\n    }\n\n    /**\n      * @dev Modifier to make a function callable only when the contract is paused.\n    */\n    modifier whenPaused() {\n        require(_paused, \"Must be paused.\");\n        _;\n    }\n\n    /**\n      * @dev called by the owner to pause, triggers stopped state\n    */\n    function pause() public onlyPauser whenNotPaused {\n        _paused = true;\n        emit LogPaused();\n    }\n\n    /**\n      * @dev called by the owner to unpause, returns to normal state\n    */\n    function unpause() public onlyPauser whenPaused {\n        _paused = false;\n        emit LogUnpaused();\n    }\n\n    uint256[50] private ______gap;\n}\n",
  "sourcePath": "/Users/davidminarsch/final-project-DavidMinarsch/installed_contracts/lifecycle/Pausable.sol",
  "compiler": {
    "name": "solc",
    "version": "0.5.2+commit.1df8f40c.Emscripten.clang"
  },
  "schemaVersion": "3.0.0",
  "updatedAt": "2019-01-22T18:54:04.802Z",
  "devdoc": {
    "details": "Base contract which allows children to implement an emergency stop mechanism.",
    "methods": {
      "pause()": {
        "details": "called by the owner to pause, triggers stopped state"
      },
      "paused()": {
        "return": "true if the contract is paused, false otherwise."
      },
      "unpause()": {
        "details": "called by the owner to unpause, returns to normal state"
      }
    },
    "title": "Pausable"
  },
  "userdoc": {
    "methods": {}
  }
}