{
  "contractName": "ProofOfExistence",
  "abi": [
    {
      "constant": true,
      "inputs": [],
      "name": "count",
      "outputs": [
        {
          "name": "",
          "type": "uint256"
        }
      ],
      "payable": false,
      "stateMutability": "view",
      "type": "function"
    },
    {
      "constant": true,
      "inputs": [],
      "name": "lastTimestamp",
      "outputs": [
        {
          "name": "",
          "type": "uint256"
        }
      ],
      "payable": false,
      "stateMutability": "view",
      "type": "function"
    },
    {
      "constant": true,
      "inputs": [],
      "name": "beneficiary",
      "outputs": [
        {
          "name": "",
          "type": "address"
        }
      ],
      "payable": false,
      "stateMutability": "view",
      "type": "function"
    },
    {
      "constant": false,
      "inputs": [],
      "name": "unpause",
      "outputs": [],
      "payable": false,
      "stateMutability": "nonpayable",
      "type": "function"
    },
    {
      "constant": true,
      "inputs": [
        {
          "name": "account",
          "type": "address"
        }
      ],
      "name": "isPauser",
      "outputs": [
        {
          "name": "",
          "type": "bool"
        }
      ],
      "payable": false,
      "stateMutability": "view",
      "type": "function"
    },
    {
      "constant": true,
      "inputs": [],
      "name": "paused",
      "outputs": [
        {
          "name": "",
          "type": "bool"
        }
      ],
      "payable": false,
      "stateMutability": "view",
      "type": "function"
    },
    {
      "constant": false,
      "inputs": [],
      "name": "renouncePauser",
      "outputs": [],
      "payable": false,
      "stateMutability": "nonpayable",
      "type": "function"
    },
    {
      "constant": false,
      "inputs": [
        {
          "name": "account",
          "type": "address"
        }
      ],
      "name": "addPauser",
      "outputs": [],
      "payable": false,
      "stateMutability": "nonpayable",
      "type": "function"
    },
    {
      "constant": false,
      "inputs": [],
      "name": "pause",
      "outputs": [],
      "payable": false,
      "stateMutability": "nonpayable",
      "type": "function"
    },
    {
      "payable": false,
      "stateMutability": "nonpayable",
      "type": "fallback"
    },
    {
      "anonymous": false,
      "inputs": [
        {
          "indexed": true,
          "name": "_hash",
          "type": "bytes32"
        },
        {
          "indexed": true,
          "name": "_registrant",
          "type": "address"
        },
        {
          "indexed": true,
          "name": "_id",
          "type": "uint256"
        }
      ],
      "name": "LogRegistration",
      "type": "event"
    },
    {
      "anonymous": false,
      "inputs": [
        {
          "indexed": true,
          "name": "_hash",
          "type": "address"
        }
      ],
      "name": "LogWithdrawal",
      "type": "event"
    },
    {
      "anonymous": false,
      "inputs": [
        {
          "indexed": true,
          "name": "_balance",
          "type": "uint256"
        }
      ],
      "name": "LogForcefulDonation",
      "type": "event"
    },
    {
      "anonymous": false,
      "inputs": [],
      "name": "Paused",
      "type": "event"
    },
    {
      "anonymous": false,
      "inputs": [],
      "name": "Unpaused",
      "type": "event"
    },
    {
      "anonymous": false,
      "inputs": [
        {
          "indexed": true,
          "name": "account",
          "type": "address"
        }
      ],
      "name": "PauserAdded",
      "type": "event"
    },
    {
      "anonymous": false,
      "inputs": [
        {
          "indexed": true,
          "name": "account",
          "type": "address"
        }
      ],
      "name": "PauserRemoved",
      "type": "event"
    },
    {
      "constant": false,
      "inputs": [],
      "name": "withdraw",
      "outputs": [],
      "payable": false,
      "stateMutability": "nonpayable",
      "type": "function"
    },
    {
      "constant": false,
      "inputs": [
        {
          "name": "_hash",
          "type": "bytes32"
        }
      ],
      "name": "registerHash",
      "outputs": [],
      "payable": false,
      "stateMutability": "nonpayable",
      "type": "function"
    },
    {
      "constant": false,
      "inputs": [
        {
          "name": "_deployer",
          "type": "address"
        },
        {
          "name": "_owner",
          "type": "address"
        }
      ],
      "name": "initialize",
      "outputs": [],
      "payable": false,
      "stateMutability": "nonpayable",
      "type": "function"
    },
    {
      "constant": false,
      "inputs": [
        {
          "name": "sender",
          "type": "address"
        }
      ],
      "name": "initialize",
      "outputs": [],
      "payable": false,
      "stateMutability": "nonpayable",
      "type": "function"
    },
    {
      "constant": true,
      "inputs": [
        {
          "name": "_id",
          "type": "uint256"
        }
      ],
      "name": "getRegistrationForId",
      "outputs": [
        {
          "name": "hash",
          "type": "bytes32"
        },
        {
          "name": "registrant",
          "type": "address"
        },
        {
          "name": "timestamp",
          "type": "uint256"
        }
      ],
      "payable": false,
      "stateMutability": "view",
      "type": "function"
    },
    {
      "constant": true,
      "inputs": [
        {
          "name": "_hash",
          "type": "bytes32"
        }
      ],
      "name": "getRegistrationForHash",
      "outputs": [
        {
          "name": "hash",
          "type": "bytes32"
        },
        {
          "name": "registrant",
          "type": "address"
        },
        {
          "name": "timestamp",
          "type": "uint256"
        }
      ],
      "payable": false,
      "stateMutability": "view",
      "type": "function"
    },
    {
      "constant": true,
      "inputs": [
        {
          "name": "_registrant",
          "type": "address"
        }
      ],
      "name": "getIdsForAddress",
      "outputs": [
        {
          "name": "_ids",
          "type": "uint256[]"
        }
      ],
      "payable": false,
      "stateMutability": "view",
      "type": "function"
    }
  ],
  "bytecode": "0x60806040526066805460ff1916905534801561001a57600080fd5b50610ac68061002a6000396000f3fe608060405234801561001057600080fd5b506004361061011d576000357c0100000000000000000000000000000000000000000000000000000000900480636518ee4f116100b45780638456cb59116100835780638456cb59146102fa5780638f1de16e14610302578063c4d66de81461031f578063f4bacf19146103455761011d565b80636518ee4f146102135780636c1c66a7146102895780636ef8d66d146102cc57806382dc1ec4146102d45761011d565b80633f4ba83a116100f05780633f4ba83a1461019b57806346fbf68e146101a3578063485cc955146101dd5780635c975abb1461020b5761011d565b806306661abd1461014b57806319d8ac611461016557806338af3eed1461016d5780633ccfd60b14610191575b6040513031907f7bf73331357f58f7bffcf96c3411f3c03e687bd0bb958575e2f1d1cf1cb17faa90600090a2005b610153610362565b60408051918252519081900360200190f35b610153610368565b61017561036e565b60408051600160a060020a039092168252519081900360200190f35b61019961037d565b005b6101996103e5565b6101c9600480360360208110156101b957600080fd5b5035600160a060020a031661043f565b604080519115158252519081900360200190f35b610199600480360360408110156101f357600080fd5b50600160a060020a0381358116916020013516610458565b6101c9610532565b6102396004803603602081101561022957600080fd5b5035600160a060020a031661053b565b60408051602080825283518183015283519192839290830191858101910280838360005b8381101561027557818101518382015260200161025d565b505050509050019250505060405180910390f35b6102a66004803603602081101561029f57600080fd5b50356105a7565b60408051938452600160a060020a03909216602084015282820152519081900360600190f35b6101996105ca565b610199600480360360208110156102ea57600080fd5b5035600160a060020a03166105d5565b6101996105f5565b6101996004803603602081101561031857600080fd5b5035610651565b6101996004803603602081101561033557600080fd5b5035600160a060020a0316610794565b6102a66004803603602081101561035b57600080fd5b503561083f565b609a5481565b609e5481565b609954600160a060020a031681565b609954604051600160a060020a0390911690303180156108fc02916000818181858888f193505050501580156103b7573d6000803e3d6000fd5b5060405133907f9c83dda3a4d55a3e890a8700226b60840862d0cfa5e73e4be7c1ed8c5684d36790600090a2565b6103ee3361043f565b15156103f957600080fd5b60665460ff16151561040a57600080fd5b6066805460ff191690556040517fa45f47fdea8a1efdd9029a5691c7f759c32b7c698632b563573e155625d1693390600090a1565b600061045260338363ffffffff61086a16565b92915050565b600054610100900460ff168061047157506104716108a1565b8061047f575060005460ff16155b15156104bf5760405160e560020a62461bcd02815260040180806020018281038252602e815260200180610a6d602e913960400191505060405180910390fd5b60008054600161010061ff00198316811760ff1916919091179092550460ff166104e882610794565b60998054600160a060020a0390941673ffffffffffffffffffffffffffffffffffffffff199094169390931790925550600080549115156101000261ff0019909216919091179055565b60665460ff1690565b600160a060020a0381166000908152609c602090815260409182902080548351818402810184019094528084526060939283018282801561059b57602002820191906000526020600020905b815481526020019060010190808311610587575b50505050509050919050565b60008060006105bd6105b8856108a7565b61083f565b9250925092509193909250565b6105d3336108b9565b565b6105de3361043f565b15156105e957600080fd5b6105f281610901565b50565b6105fe3361043f565b151561060957600080fd5b60665460ff161561061957600080fd5b6066805460ff191660011790556040517f9e87fac88ff661f02d44f95383c817fece4bce600a3dab7a54406878b965e75290600090a1565b60665460ff161561066157600080fd5b61066a81610949565b15156106c0576040805160e560020a62461bcd02815260206004820181905260248201527f54686973206861736820697320616c726561647920726567697374657265642e604482015290519081900360640190fd5b609a80546001908101918290556000838152609b6020908152604080832085905533808452609c83528184208054808701825590855283852001869055815160608101835287815280840182815242828501818152898852609d909652848720925183559051968201805473ffffffffffffffffffffffffffffffffffffffff1916600160a060020a03909816979097179096559251600290930192909255609e93909355915183929185917fea855b9418bd90df811e70b5f3939608891f3eb1c5c4fe0ef92a5276397694da9190a45050565b600054610100900460ff16806107ad57506107ad6108a1565b806107bb575060005460ff16155b15156107fb5760405160e560020a62461bcd02815260040180806020018281038252602e815260200180610a6d602e913960400191505060405180910390fd5b60008054600161010061ff00198316811760ff1916919091179092550460ff166108248261095c565b600080549115156101000261ff001990921691909117905550565b6000908152609d60205260409020805460018201546002909201549092600160a060020a0390921691565b6000600160a060020a038216151561088157600080fd5b50600160a060020a03166000908152602091909152604090205460ff1690565b303b1590565b6000908152609b602052604090205490565b6108ca60338263ffffffff6109fb16565b604051600160a060020a038216907fcd265ebaf09df2871cc7bd4133404a235ba12eff2041bb89d9c714a2621c7c7e90600090a250565b61091260338263ffffffff610a3216565b604051600160a060020a038216907f6719d08c1888103bea251a4ed56406bd0c3e69723c8a1686e017e7bbe159b6f890600090a250565b6000908152609b60205260409020541590565b600054610100900460ff168061097557506109756108a1565b80610983575060005460ff16155b15156109c35760405160e560020a62461bcd02815260040180806020018281038252602e815260200180610a6d602e913960400191505060405180910390fd5b60008054600161010061ff00198316811760ff1916919091179092550460ff166109ec8261043f565b15156108245761082482610901565b600160a060020a0381161515610a1057600080fd5b600160a060020a0316600090815260209190915260409020805460ff19169055565b600160a060020a0381161515610a4757600080fd5b600160a060020a0316600090815260209190915260409020805460ff1916600117905556fe436f6e747261637420696e7374616e63652068617320616c7265616479206265656e20696e697469616c697a6564a165627a7a72305820d270bdd8b74ef9a0cb0739f04fb8ebe20b2f4fbf2ec690ff5f99dbb93ff7e2480029",
  "source": "pragma solidity >=0.5.0 <0.6.0;\n\nimport \"zos-lib/contracts/Initializable.sol\";\nimport \"../installed_contracts/lifecycle/Pausable.sol\";\n\n\n/** @title ProofOfExistence\n  * @author David Minarsch\n  * @notice A contract to register hashes of data as a proof of existence of the data at a given point in time.\n*/\ncontract ProofOfExistence is Initializable, Pausable {\n\n    address payable public beneficiary;\n    uint public count;\n    mapping ( bytes32 => uint ) private hashToId;\n    mapping ( address => uint[] ) private registrantToIds;\n    struct Registration {\n        bytes32 hash;\n        address registrant;\n        uint timestamp;\n    }\n    mapping ( uint => Registration ) private idToRegistration;\n    // Do not change above variable declarations during contract upgrades.\n    // All new variables introduced during contract upgrades must be declared below!\n    uint public lastTimestamp;\n\n    event LogRegistration(bytes32 indexed _hash, address indexed _registrant, uint indexed _id);\n    event LogWithdrawal(address indexed _hash);\n    event LogForcefulDonation(uint indexed _balance);\n\n    // @dev Fallback to accept only ether sent to it forcefully.\n    function () external {\n        emit LogForcefulDonation(address(this).balance);\n    }\n\n    // @dev Function to withdraw ether sent forcefully to the contract for the beneficiary\n    function withdraw()\n        external\n    {\n        // We could check the beneficiary is calling this function; but we could also not since if someone else \n        // calls this function we don't have to pay the gas fee so we might not actually care.\n        // require(msg.sender == beneficiary, \"Only the contract beneficiary can call this function.\");\n\n        // Send the amount to the beneficiary\n        beneficiary.transfer(address(this).balance);\n        emit LogWithdrawal(msg.sender);\n    }\n\n    /** @dev Pausable function to register hash\n      * @param _hash The IPFS hash.\n    */\n    function registerHash(bytes32 _hash) \n        external\n        whenNotPaused()\n    {\n        require(isNotRegistered(_hash), \"This hash is already registered.\");\n        count += 1;\n        uint _id = count;\n        hashToId[_hash] = _id;\n        registrantToIds[msg.sender].push(_id);\n        idToRegistration[_id] = Registration(_hash, msg.sender, now);\n        lastTimestamp = now;\n        emit LogRegistration(_hash, msg.sender, _id);\n    }\n\n    /** @dev Contract constructor (replacing standard Solidity constructor in adherence to\n        ZeppelinOS guidelines) to set beneficiary\n      * @param _deployer The deployer of the contract.\n      * @param _owner The owner of the contract.\n    */\n    function initialize (address payable _deployer, address _owner)\n        public\n        initializer\n    {\n        Pausable.initialize(_owner);\n        beneficiary = _deployer;\n    }\n\n    /** @dev Function which returns all registration data given an id.\n      * @param _id of file.\n      * @return hash The IPFS hash.\n      * @return registrant The address of the registrant.\n      * @return timestamp The timestamp when the registered happened.\n    */\n    function getRegistrationForId(uint _id)\n        public\n        view\n        returns (bytes32 hash, address registrant, uint timestamp)\n    {\n        return (idToRegistration[_id].hash, idToRegistration[_id].registrant, idToRegistration[_id].timestamp);\n    }\n\n    /** @dev Function which returns all registration data given a hash.\n      * @param _hash The IPFS hash.\n      * @return hash The IPFS hash.\n      * @return registrant The address of file registrant.\n      * @return timestamp The timestamp when file was registered.\n    */\n    function getRegistrationForHash(bytes32 _hash)\n        public\n        view\n        returns (bytes32 hash, address registrant, uint timestamp)\n    {\n        return getRegistrationForId(getIdForHash(_hash));\n    }\n\n    /** @dev Function which returns all ids for an address\n      * @param _registrant Address of registrant.\n      * @return _ids Array of ids.\n    */\n    function getIdsForAddress(address _registrant)\n        public\n        view\n        returns (uint[] memory _ids)\n    {\n        return registrantToIds[_registrant];\n    }\n\n    /** @dev Function which returns id given a hash.\n      * @param _hash The IPFS hash.\n      * @return id The id.\n    */\n    function getIdForHash(bytes32 _hash)\n        internal\n        view\n        returns (uint id)\n    {\n        return hashToId[_hash];\n    }\n\n    /** @dev Function to check that a hash is not registered.\n      * @param _hash The IPFS hash\n      * @return boolean\n    */\n    function isNotRegistered(bytes32 _hash) \n        internal\n        view\n        returns (bool)\n    {\n        return hashToId[_hash] == 0;\n    }\n}\n",
  "sourcePath": "/Users/davidminarsch/final-project-DavidMinarsch/contracts/ProofOfExistence.sol",
  "compiler": {
    "name": "solc",
    "version": "0.5.2+commit.1df8f40c.Emscripten.clang"
  },
  "schemaVersion": "3.0.1",
  "updatedAt": "2019-01-21T13:15:50.048Z",
  "devdoc": {
    "author": "David Minarsch",
    "methods": {
      "getIdsForAddress(address)": {
        "details": "Function which returns all ids for an address",
        "params": {
          "_registrant": "Address of registrant."
        },
        "return": "_ids Array of ids."
      },
      "getRegistrationForHash(bytes32)": {
        "details": "Function which returns all registration data given a hash.",
        "params": {
          "_hash": "The IPFS hash."
        },
        "return": "hash The IPFS hash.registrant The address of file registrant.timestamp The timestamp when file was registered."
      },
      "getRegistrationForId(uint256)": {
        "details": "Function which returns all registration data given an id.",
        "params": {
          "_id": "of file."
        },
        "return": "hash The IPFS hash.registrant The address of the registrant.timestamp The timestamp when the registered happened."
      },
      "initialize(address,address)": {
        "details": "Contract constructor (replacing standard Solidity constructor in adherence to ZeppelinOS guidelines) to set beneficiary",
        "params": {
          "_deployer": "The deployer of the contract.",
          "_owner": "The owner of the contract."
        }
      },
      "pause()": {
        "details": "called by the owner to pause, triggers stopped state"
      },
      "paused()": {
        "return": "true if the contract is paused, false otherwise."
      },
      "registerHash(bytes32)": {
        "details": "Pausable function to register hash",
        "params": {
          "_hash": "The IPFS hash."
        }
      },
      "unpause()": {
        "details": "called by the owner to unpause, returns to normal state"
      }
    },
    "title": "ProofOfExistence"
  },
  "userdoc": {
    "methods": {},
    "notice": "A contract to register hashes of data as a proof of existence of the data at a given point in time."
  }
}