{
  "contractName": "ProofOfExistence",
  "abi": [
    {
      "constant": true,
      "inputs": [],
      "name": "count",
      "outputs": [
        {
          "name": "",
          "type": "uint256"
        }
      ],
      "payable": false,
      "stateMutability": "view",
      "type": "function"
    },
    {
      "payable": false,
      "stateMutability": "nonpayable",
      "type": "fallback"
    },
    {
      "anonymous": false,
      "inputs": [
        {
          "indexed": true,
          "name": "_hash",
          "type": "bytes32"
        },
        {
          "indexed": true,
          "name": "_registrant",
          "type": "address"
        },
        {
          "indexed": true,
          "name": "_id",
          "type": "uint256"
        }
      ],
      "name": "LogRegistration",
      "type": "event"
    },
    {
      "constant": false,
      "inputs": [
        {
          "name": "_hash",
          "type": "bytes32"
        }
      ],
      "name": "registerHash",
      "outputs": [],
      "payable": false,
      "stateMutability": "nonpayable",
      "type": "function"
    },
    {
      "constant": true,
      "inputs": [
        {
          "name": "_id",
          "type": "uint256"
        }
      ],
      "name": "getRegistrationForId",
      "outputs": [
        {
          "name": "hash",
          "type": "bytes32"
        },
        {
          "name": "registrant",
          "type": "address"
        },
        {
          "name": "timestamp",
          "type": "uint256"
        }
      ],
      "payable": false,
      "stateMutability": "view",
      "type": "function"
    },
    {
      "constant": true,
      "inputs": [
        {
          "name": "_hash",
          "type": "bytes32"
        }
      ],
      "name": "getRegistrationForHash",
      "outputs": [
        {
          "name": "hash",
          "type": "bytes32"
        },
        {
          "name": "registrant",
          "type": "address"
        },
        {
          "name": "timestamp",
          "type": "uint256"
        }
      ],
      "payable": false,
      "stateMutability": "view",
      "type": "function"
    },
    {
      "constant": true,
      "inputs": [],
      "name": "getIds",
      "outputs": [
        {
          "name": "_ids",
          "type": "uint256[]"
        }
      ],
      "payable": false,
      "stateMutability": "view",
      "type": "function"
    },
    {
      "constant": true,
      "inputs": [
        {
          "name": "_registrant",
          "type": "address"
        }
      ],
      "name": "getIdsForAddress",
      "outputs": [
        {
          "name": "_ids",
          "type": "uint256[]"
        }
      ],
      "payable": false,
      "stateMutability": "view",
      "type": "function"
    }
  ],
  "bytecode": "0x608060405234801561001057600080fd5b506107d9806100206000396000f3fe608060405260043610610078576000357c0100000000000000000000000000000000000000000000000000000000900463ffffffff16806306661abd146101195780632b105663146101445780636518ee4f146101b05780636c1c66a7146102565780638f1de16e146102df578063f4bacf191461031a575b34801561008457600080fd5b506040517f08c379a00000000000000000000000000000000000000000000000000000000081526004018080602001828103825260258152602001807f4e6f20657468657220746f2062652073656e7420746f207468697320636f6e7481526020017f726163742e00000000000000000000000000000000000000000000000000000081525060400191505060405180910390fd5b34801561012557600080fd5b5061012e6103a3565b6040518082815260200191505060405180910390f35b34801561015057600080fd5b506101596103a9565b6040518080602001828103825283818151815260200191508051906020019060200280838360005b8381101561019c578082015181840152602081019050610181565b505050509050019250505060405180910390f35b3480156101bc57600080fd5b506101ff600480360360208110156101d357600080fd5b81019080803573ffffffffffffffffffffffffffffffffffffffff16906020019092919050505061043e565b6040518080602001828103825283818151815260200191508051906020019060200280838360005b83811015610242578082015181840152602081019050610227565b505050509050019250505060405180910390f35b34801561026257600080fd5b5061028f6004803603602081101561027957600080fd5b81019080803590602001909291905050506104d5565b604051808481526020018373ffffffffffffffffffffffffffffffffffffffff1673ffffffffffffffffffffffffffffffffffffffff168152602001828152602001935050505060405180910390f35b3480156102eb57600080fd5b506103186004803603602081101561030257600080fd5b81019080803590602001909291905050506104f8565b005b34801561032657600080fd5b506103536004803603602081101561033d57600080fd5b81019080803590602001909291905050506106fa565b604051808481526020018373ffffffffffffffffffffffffffffffffffffffff1673ffffffffffffffffffffffffffffffffffffffff168152602001828152602001935050505060405180910390f35b60335481565b6060603560003373ffffffffffffffffffffffffffffffffffffffff1673ffffffffffffffffffffffffffffffffffffffff16815260200190815260200160002080548060200260200160405190810160405280929190818152602001828054801561043457602002820191906000526020600020905b815481526020019060010190808311610420575b5050505050905090565b6060603560008373ffffffffffffffffffffffffffffffffffffffff1673ffffffffffffffffffffffffffffffffffffffff1681526020019081526020016000208054806020026020016040519081016040528092919081815260200182805480156104c957602002820191906000526020600020905b8154815260200190600101908083116104b5575b50505050509050919050565b60008060006104eb6104e685610771565b6106fa565b9250925092509193909250565b6105018161078e565b1515610575576040517f08c379a00000000000000000000000000000000000000000000000000000000081526004018080602001828103825260208152602001807f54686973206861736820697320616c726561647920726567697374657265642e81525060200191505060405180910390fd5b600160336000828254019250508190555060006033549050806034600084815260200190815260200160002081905550603560003373ffffffffffffffffffffffffffffffffffffffff1673ffffffffffffffffffffffffffffffffffffffff1681526020019081526020016000208190806001815401808255809150509060018203906000526020600020016000909192909190915055506060604051908101604052808381526020013373ffffffffffffffffffffffffffffffffffffffff16815260200142815250603660008381526020019081526020016000206000820151816000015560208201518160010160006101000a81548173ffffffffffffffffffffffffffffffffffffffff021916908373ffffffffffffffffffffffffffffffffffffffff16021790555060408201518160020155905050803373ffffffffffffffffffffffffffffffffffffffff16837fea855b9418bd90df811e70b5f3939608891f3eb1c5c4fe0ef92a5276397694da60405160405180910390a45050565b600080600060366000858152602001908152602001600020600001546036600086815260200190815260200160002060010160009054906101000a900473ffffffffffffffffffffffffffffffffffffffff1660366000878152602001908152602001600020600201549250925092509193909250565b600060346000838152602001908152602001600020549050919050565b600080603460008481526020019081526020016000205414905091905056fea165627a7a72305820e73dea50de21768bf612d76d8718fc5ac8a487206f2d1cf8fc53c3433f6d9d7b0029",
  "source": "pragma solidity >=0.4.24 <0.6.0;\n\nimport \"../node_modules/zos-lib/contracts/Initializable.sol\";\n\n\n/** @title ProofOfExistence\n  * @author David Minarsch\n  * @notice A contract to register hashes of data as a proof of existence of the data at a given point in time.\n*/\ncontract ProofOfExistence is Initializable {\n\n    uint public count;\n    mapping ( bytes32 => uint ) private hashToId;\n    mapping ( address => uint[] ) private registrantToIds;\n\n    struct Registration {\n        bytes32 hash;\n        address registrant;\n        uint timestamp;\n    }\n\n    mapping ( uint => Registration ) private idToRegistration;\n\n    event LogRegistration(bytes32 indexed _hash, address indexed _registrant, uint indexed _id);\n\n    // @dev Fallback to reject any ether sent to contract\n    function () external { revert(\"No ether to be sent to this contract.\"); }\n\n    /** @dev Function to register hash\n      * @param _hash The IPFS hash.\n    */\n    function registerHash(bytes32 _hash) \n        external\n    {\n        // require (isValidHash(_hash));\n        require(isNotRegistered(_hash), \"This hash is already registered.\");\n        count += 1;\n        uint _id = count;\n        hashToId[_hash] = _id;\n        registrantToIds[msg.sender].push(_id);\n        idToRegistration[_id] = Registration(_hash, msg.sender, now);\n        emit LogRegistration(_hash, msg.sender, _id);\n    }\n\n    /** @dev Function which returns all registration data given an id.\n      * @param _id of file.\n      * @return hash The IPFS hash.\n      * @return registrant The address of the registrant.\n      * @return timestamp The timestamp when the registered happened.\n    */\n    function getRegistrationForId(uint _id)\n        public\n        view\n        returns (bytes32 hash, address registrant, uint timestamp)\n    {\n        return (idToRegistration[_id].hash, idToRegistration[_id].registrant, idToRegistration[_id].timestamp);\n    }\n\n    /** @dev Function which returns all registration data given a hash.\n      * @param _hash The IPFS hash.\n      * @return hash The IPFS hash.\n      * @return registrant The address of file registrant.\n      * @return timestamp The timestamp when file was registered.\n    */\n    function getRegistrationForHash(bytes32 _hash)\n        public\n        view\n        returns (bytes32 hash, address registrant, uint timestamp)\n    {\n        return getRegistrationForId(getIdForHash(_hash));\n    }\n\n    /** @dev Function which returns all ids for an account owner\n      * @return _ids Array of ids.\n    */\n    function getIds()\n        public\n        view\n        returns (uint[] memory _ids)\n    {\n        return registrantToIds[msg.sender];\n    }\n\n    /** @dev Function which returns all ids for an address\n      * @param _registrant Address of registrant.\n      * @return _ids Array of ids.\n    */\n    function getIdsForAddress(address _registrant)\n        public\n        view\n        returns (uint[] memory _ids)\n    {\n        return registrantToIds[_registrant];\n    }\n\n    /** @dev Function which returns id given a hash.\n      * @param _hash The IPFS hash.\n      * @return id The id.\n    */\n    function getIdForHash(bytes32 _hash)\n        internal\n        view\n        returns (uint id)\n    {\n        return hashToId[_hash];\n    }\n\n    /** @dev Function to check that a hash is not registered.\n      * @param _hash The IPFS hash\n      * @return boolean\n    */\n    function isNotRegistered(bytes32 _hash) \n        internal\n        view\n        returns (bool)\n    {\n        return hashToId[_hash] == 0;\n    }\n}\n",
  "sourcePath": "/Users/davidminarsch/final-project-DavidMinarsch/contracts/ProofOfExistence.sol",
  "compiler": {
    "name": "solc",
    "version": "0.5.0+commit.1d4f565a.Emscripten.clang"
  },
  "schemaVersion": "3.0.0",
  "updatedAt": "2019-01-11T15:16:41.822Z",
  "devdoc": {
    "author": "David Minarsch",
    "methods": {
      "getIds()": {
        "details": "Function which returns all ids for an account owner",
        "return": "_ids Array of ids."
      },
      "getIdsForAddress(address)": {
        "details": "Function which returns all ids for an address",
        "params": {
          "_registrant": "Address of registrant."
        },
        "return": "_ids Array of ids."
      },
      "getRegistrationForHash(bytes32)": {
        "details": "Function which returns all registration data given a hash.",
        "params": {
          "_hash": "The IPFS hash."
        },
        "return": "hash The IPFS hash.registrant The address of file registrant.timestamp The timestamp when file was registered."
      },
      "getRegistrationForId(uint256)": {
        "details": "Function which returns all registration data given an id.",
        "params": {
          "_id": "of file."
        },
        "return": "hash The IPFS hash.registrant The address of the registrant.timestamp The timestamp when the registered happened."
      },
      "registerHash(bytes32)": {
        "details": "Function to register hash",
        "params": {
          "_hash": "The IPFS hash."
        }
      }
    },
    "title": "ProofOfExistence"
  },
  "userdoc": {
    "methods": {},
    "notice": "A contract to register hashes of data as a proof of existence of the data at a given point in time."
  }
}