{
  "contractName": "ProofOfExistence",
  "abi": [
    {
      "constant": true,
      "inputs": [],
      "name": "count",
      "outputs": [
        {
          "name": "",
          "type": "uint256"
        }
      ],
      "payable": false,
      "stateMutability": "view",
      "type": "function"
    },
    {
      "constant": true,
      "inputs": [],
      "name": "beneficiary",
      "outputs": [
        {
          "name": "",
          "type": "address"
        }
      ],
      "payable": false,
      "stateMutability": "view",
      "type": "function"
    },
    {
      "payable": false,
      "stateMutability": "nonpayable",
      "type": "fallback"
    },
    {
      "anonymous": false,
      "inputs": [
        {
          "indexed": true,
          "name": "_hash",
          "type": "bytes32"
        },
        {
          "indexed": true,
          "name": "_registrant",
          "type": "address"
        },
        {
          "indexed": true,
          "name": "_id",
          "type": "uint256"
        }
      ],
      "name": "LogRegistration",
      "type": "event"
    },
    {
      "anonymous": false,
      "inputs": [
        {
          "indexed": true,
          "name": "_hash",
          "type": "address"
        }
      ],
      "name": "LogWithdrawal",
      "type": "event"
    },
    {
      "anonymous": false,
      "inputs": [
        {
          "indexed": true,
          "name": "_balance",
          "type": "uint256"
        }
      ],
      "name": "LogForcefulDonation",
      "type": "event"
    },
    {
      "constant": false,
      "inputs": [],
      "name": "withdraw",
      "outputs": [],
      "payable": false,
      "stateMutability": "nonpayable",
      "type": "function"
    },
    {
      "constant": false,
      "inputs": [
        {
          "name": "_hash",
          "type": "bytes32"
        }
      ],
      "name": "registerHash",
      "outputs": [],
      "payable": false,
      "stateMutability": "nonpayable",
      "type": "function"
    },
    {
      "constant": false,
      "inputs": [],
      "name": "initialize",
      "outputs": [],
      "payable": false,
      "stateMutability": "nonpayable",
      "type": "function"
    },
    {
      "constant": true,
      "inputs": [
        {
          "name": "_id",
          "type": "uint256"
        }
      ],
      "name": "getRegistrationForId",
      "outputs": [
        {
          "name": "hash",
          "type": "bytes32"
        },
        {
          "name": "registrant",
          "type": "address"
        },
        {
          "name": "timestamp",
          "type": "uint256"
        }
      ],
      "payable": false,
      "stateMutability": "view",
      "type": "function"
    },
    {
      "constant": true,
      "inputs": [
        {
          "name": "_hash",
          "type": "bytes32"
        }
      ],
      "name": "getRegistrationForHash",
      "outputs": [
        {
          "name": "hash",
          "type": "bytes32"
        },
        {
          "name": "registrant",
          "type": "address"
        },
        {
          "name": "timestamp",
          "type": "uint256"
        }
      ],
      "payable": false,
      "stateMutability": "view",
      "type": "function"
    },
    {
      "constant": true,
      "inputs": [
        {
          "name": "_registrant",
          "type": "address"
        }
      ],
      "name": "getIdsForAddress",
      "outputs": [
        {
          "name": "_ids",
          "type": "uint256[]"
        }
      ],
      "payable": false,
      "stateMutability": "view",
      "type": "function"
    }
  ],
  "bytecode": "0x608060405234801561001057600080fd5b50610649806100206000396000f3fe60806040526004361061008d5763ffffffff7c010000000000000000000000000000000000000000000000000000000060003504166306661abd81146100c857806338af3eed146100ef5780633ccfd60b146101205780636518ee4f146101375780636c1c66a7146101ba5780638129fc1c1461020a5780638f1de16e1461021f578063f4bacf1914610249575b34801561009957600080fd5b506040513031907f7bf73331357f58f7bffcf96c3411f3c03e687bd0bb958575e2f1d1cf1cb17faa90600090a2005b3480156100d457600080fd5b506100dd610273565b60408051918252519081900360200190f35b3480156100fb57600080fd5b50610104610279565b60408051600160a060020a039092168252519081900360200190f35b34801561012c57600080fd5b50610135610288565b005b34801561014357600080fd5b5061016a6004803603602081101561015a57600080fd5b5035600160a060020a03166102f0565b60408051602080825283518183015283519192839290830191858101910280838360005b838110156101a657818101518382015260200161018e565b505050509050019250505060405180910390f35b3480156101c657600080fd5b506101e4600480360360208110156101dd57600080fd5b503561035c565b60408051938452600160a060020a03909216602084015282820152519081900360600190f35b34801561021657600080fd5b5061013561037f565b34801561022b57600080fd5b506101356004803603602081101561024257600080fd5b5035610484565b34801561025557600080fd5b506101e46004803603602081101561026c57600080fd5b50356105c7565b60345481565b603354600160a060020a031681565b603354604051600160a060020a0390911690303180156108fc02916000818181858888f193505050501580156102c2573d6000803e3d6000fd5b5060405133907f9c83dda3a4d55a3e890a8700226b60840862d0cfa5e73e4be7c1ed8c5684d36790600090a2565b600160a060020a03811660009081526036602090815260409182902080548351818402810184019094528084526060939283018282801561035057602002820191906000526020600020905b81548152602001906001019080831161033c575b50505050509050919050565b600080600061037261036d856105f2565b6105c7565b9250925092509193909250565b600054610100900460ff16806103985750610398610604565b806103a6575060005460ff16155b151561043957604080517f08c379a000000000000000000000000000000000000000000000000000000000815260206004820152602e60248201527f436f6e747261637420696e7374616e63652068617320616c726561647920626560448201527f656e20696e697469616c697a6564000000000000000000000000000000000000606482015290519081900360840190fd5b60008054603380543373ffffffffffffffffffffffffffffffffffffffff1990911617905561ff001980821661010090811760ff19166001179091169181900460ff16151502179055565b61048d8161060a565b15156104fa57604080517f08c379a000000000000000000000000000000000000000000000000000000000815260206004820181905260248201527f54686973206861736820697320616c726561647920726567697374657265642e604482015290519081900360640190fd5b6034805460019081019182905560008381526035602090815260408083208590553380845260368352818420805480870182559085528385200186905581516060810183528781528084018281524282850190815288875260379095528386209151825551958101805473ffffffffffffffffffffffffffffffffffffffff1916600160a060020a03909716969096179095559151600290940193909355915183929185917fea855b9418bd90df811e70b5f3939608891f3eb1c5c4fe0ef92a5276397694da9190a45050565b6000908152603760205260409020805460018201546002909201549092600160a060020a0390921691565b60009081526035602052604090205490565b303b1590565b600090815260356020526040902054159056fea165627a7a723058209181744e5fbe235f7f1402ceaf2cb85edb97631598237782bda0ca2992f546fb0029",
  "source": "pragma solidity >=0.5.0 <0.6.0;\n\nimport \"../node_modules/zos-lib/contracts/Initializable.sol\";\n\n\n/** @title ProofOfExistence\n  * @author David Minarsch\n  * @notice A contract to register hashes of data as a proof of existence of the data at a given point in time.\n*/\ncontract ProofOfExistence is Initializable {\n\n    address payable public beneficiary;\n    uint public count;\n    mapping ( bytes32 => uint ) private hashToId;\n    mapping ( address => uint[] ) private registrantToIds;\n\n    struct Registration {\n        bytes32 hash;\n        address registrant;\n        uint timestamp;\n    }\n\n    mapping ( uint => Registration ) private idToRegistration;\n\n    event LogRegistration(bytes32 indexed _hash, address indexed _registrant, uint indexed _id);\n    event LogWithdrawal(address indexed _hash);\n    event LogForcefulDonation(uint indexed _balance);\n\n    // @dev Fallback to accept only ether sent to it forcefully.\n    function () external {\n        emit LogForcefulDonation(address(this).balance);\n    }\n\n    // @dev Function to withdraw ether sent forcefully to the contract for the beneficiary\n    function withdraw()\n        external\n    {\n        // We could check the beneficiary is calling this function; but if someone else calls \n        // this function we don't have to pay the gas fee so we don't actually care.\n        // require(msg.sender == beneficiary, \"Only the contract beneficiary can call this function.\");\n\n        // Send the amount to the beneficiary\n        beneficiary.transfer(address(this).balance);\n        emit LogWithdrawal(msg.sender);\n    }\n\n    /** @dev Function to register hash\n      * @param _hash The IPFS hash.\n    */\n    function registerHash(bytes32 _hash) \n        external\n    {\n        // require (isValidHash(_hash));\n        require(isNotRegistered(_hash), \"This hash is already registered.\");\n        count += 1;\n        uint _id = count;\n        hashToId[_hash] = _id;\n        registrantToIds[msg.sender].push(_id);\n        idToRegistration[_id] = Registration(_hash, msg.sender, now);\n        emit LogRegistration(_hash, msg.sender, _id);\n    }\n\n    // @dev Contract constructor: set beneficiary\n    function initialize ()\n        public\n        initializer\n    {\n        beneficiary = msg.sender;\n    }\n\n    /** @dev Function which returns all registration data given an id.\n      * @param _id of file.\n      * @return hash The IPFS hash.\n      * @return registrant The address of the registrant.\n      * @return timestamp The timestamp when the registered happened.\n    */\n    function getRegistrationForId(uint _id)\n        public\n        view\n        returns (bytes32 hash, address registrant, uint timestamp)\n    {\n        return (idToRegistration[_id].hash, idToRegistration[_id].registrant, idToRegistration[_id].timestamp);\n    }\n\n    /** @dev Function which returns all registration data given a hash.\n      * @param _hash The IPFS hash.\n      * @return hash The IPFS hash.\n      * @return registrant The address of file registrant.\n      * @return timestamp The timestamp when file was registered.\n    */\n    function getRegistrationForHash(bytes32 _hash)\n        public\n        view\n        returns (bytes32 hash, address registrant, uint timestamp)\n    {\n        return getRegistrationForId(getIdForHash(_hash));\n    }\n\n    /** @dev Function which returns all ids for an address\n      * @param _registrant Address of registrant.\n      * @return _ids Array of ids.\n    */\n    function getIdsForAddress(address _registrant)\n        public\n        view\n        returns (uint[] memory _ids)\n    {\n        return registrantToIds[_registrant];\n    }\n\n    /** @dev Function which returns id given a hash.\n      * @param _hash The IPFS hash.\n      * @return id The id.\n    */\n    function getIdForHash(bytes32 _hash)\n        internal\n        view\n        returns (uint id)\n    {\n        return hashToId[_hash];\n    }\n\n    /** @dev Function to check that a hash is not registered.\n      * @param _hash The IPFS hash\n      * @return boolean\n    */\n    function isNotRegistered(bytes32 _hash) \n        internal\n        view\n        returns (bool)\n    {\n        return hashToId[_hash] == 0;\n    }\n}\n",
  "sourcePath": "/Users/davidminarsch/final-project-DavidMinarsch/contracts/ProofOfExistence.sol",
  "compiler": {
    "name": "solc",
    "version": "0.5.0+commit.1d4f565a.Emscripten.clang"
  },
  "schemaVersion": "3.0.1",
  "updatedAt": "2019-01-20T17:23:39.612Z",
  "devdoc": {
    "author": "David Minarsch",
    "methods": {
      "getIdsForAddress(address)": {
        "details": "Function which returns all ids for an address",
        "params": {
          "_registrant": "Address of registrant."
        },
        "return": "_ids Array of ids."
      },
      "getRegistrationForHash(bytes32)": {
        "details": "Function which returns all registration data given a hash.",
        "params": {
          "_hash": "The IPFS hash."
        },
        "return": "hash The IPFS hash.registrant The address of file registrant.timestamp The timestamp when file was registered."
      },
      "getRegistrationForId(uint256)": {
        "details": "Function which returns all registration data given an id.",
        "params": {
          "_id": "of file."
        },
        "return": "hash The IPFS hash.registrant The address of the registrant.timestamp The timestamp when the registered happened."
      },
      "registerHash(bytes32)": {
        "details": "Function to register hash",
        "params": {
          "_hash": "The IPFS hash."
        }
      }
    },
    "title": "ProofOfExistence"
  },
  "userdoc": {
    "methods": {},
    "notice": "A contract to register hashes of data as a proof of existence of the data at a given point in time."
  }
}