{
  "contractName": "ProofOfExistence",
  "abi": [
    {
      "constant": true,
      "inputs": [],
      "name": "count",
      "outputs": [
        {
          "name": "",
          "type": "uint256"
        }
      ],
      "payable": false,
      "stateMutability": "view",
      "type": "function",
      "signature": "0x06661abd"
    },
    {
      "constant": true,
      "inputs": [],
      "name": "beneficiary",
      "outputs": [
        {
          "name": "",
          "type": "address"
        }
      ],
      "payable": false,
      "stateMutability": "view",
      "type": "function",
      "signature": "0x38af3eed"
    },
    {
      "constant": false,
      "inputs": [],
      "name": "unpause",
      "outputs": [],
      "payable": false,
      "stateMutability": "nonpayable",
      "type": "function",
      "signature": "0x3f4ba83a"
    },
    {
      "constant": true,
      "inputs": [
        {
          "name": "account",
          "type": "address"
        }
      ],
      "name": "isPauser",
      "outputs": [
        {
          "name": "",
          "type": "bool"
        }
      ],
      "payable": false,
      "stateMutability": "view",
      "type": "function",
      "signature": "0x46fbf68e"
    },
    {
      "constant": true,
      "inputs": [],
      "name": "paused",
      "outputs": [
        {
          "name": "",
          "type": "bool"
        }
      ],
      "payable": false,
      "stateMutability": "view",
      "type": "function",
      "signature": "0x5c975abb"
    },
    {
      "constant": false,
      "inputs": [],
      "name": "renouncePauser",
      "outputs": [],
      "payable": false,
      "stateMutability": "nonpayable",
      "type": "function",
      "signature": "0x6ef8d66d"
    },
    {
      "constant": false,
      "inputs": [
        {
          "name": "account",
          "type": "address"
        }
      ],
      "name": "addPauser",
      "outputs": [],
      "payable": false,
      "stateMutability": "nonpayable",
      "type": "function",
      "signature": "0x82dc1ec4"
    },
    {
      "constant": false,
      "inputs": [],
      "name": "pause",
      "outputs": [],
      "payable": false,
      "stateMutability": "nonpayable",
      "type": "function",
      "signature": "0x8456cb59"
    },
    {
      "payable": false,
      "stateMutability": "nonpayable",
      "type": "fallback"
    },
    {
      "anonymous": false,
      "inputs": [
        {
          "indexed": true,
          "name": "_hash",
          "type": "bytes32"
        },
        {
          "indexed": true,
          "name": "_registrant",
          "type": "address"
        },
        {
          "indexed": true,
          "name": "_id",
          "type": "uint256"
        }
      ],
      "name": "LogRegistration",
      "type": "event",
      "signature": "0xea855b9418bd90df811e70b5f3939608891f3eb1c5c4fe0ef92a5276397694da"
    },
    {
      "anonymous": false,
      "inputs": [
        {
          "indexed": true,
          "name": "_hash",
          "type": "address"
        }
      ],
      "name": "LogWithdrawal",
      "type": "event",
      "signature": "0x9c83dda3a4d55a3e890a8700226b60840862d0cfa5e73e4be7c1ed8c5684d367"
    },
    {
      "anonymous": false,
      "inputs": [
        {
          "indexed": true,
          "name": "_balance",
          "type": "uint256"
        }
      ],
      "name": "LogForcefulDonation",
      "type": "event",
      "signature": "0x7bf73331357f58f7bffcf96c3411f3c03e687bd0bb958575e2f1d1cf1cb17faa"
    },
    {
      "anonymous": false,
      "inputs": [],
      "name": "LogPaused",
      "type": "event",
      "signature": "0x777ecb744cfc69794c3985ebff0496449aafc907c556f1d4003201beb364e80f"
    },
    {
      "anonymous": false,
      "inputs": [],
      "name": "LogUnpaused",
      "type": "event",
      "signature": "0x49abf6fd2c0eb39a7c6c4c5fbdc6ba8711ab69ebbc4153dd9abff12ba2dc4c98"
    },
    {
      "anonymous": false,
      "inputs": [
        {
          "indexed": true,
          "name": "account",
          "type": "address"
        }
      ],
      "name": "PauserAdded",
      "type": "event",
      "signature": "0x6719d08c1888103bea251a4ed56406bd0c3e69723c8a1686e017e7bbe159b6f8"
    },
    {
      "anonymous": false,
      "inputs": [
        {
          "indexed": true,
          "name": "account",
          "type": "address"
        }
      ],
      "name": "PauserRemoved",
      "type": "event",
      "signature": "0xcd265ebaf09df2871cc7bd4133404a235ba12eff2041bb89d9c714a2621c7c7e"
    },
    {
      "constant": false,
      "inputs": [],
      "name": "withdraw",
      "outputs": [],
      "payable": false,
      "stateMutability": "nonpayable",
      "type": "function",
      "signature": "0x3ccfd60b"
    },
    {
      "constant": false,
      "inputs": [
        {
          "name": "_hash",
          "type": "bytes32"
        }
      ],
      "name": "registerHash",
      "outputs": [],
      "payable": false,
      "stateMutability": "nonpayable",
      "type": "function",
      "signature": "0x8f1de16e"
    },
    {
      "constant": false,
      "inputs": [
        {
          "name": "_beneficiary",
          "type": "address"
        },
        {
          "name": "_pauser",
          "type": "address"
        }
      ],
      "name": "initialize",
      "outputs": [],
      "payable": false,
      "stateMutability": "nonpayable",
      "type": "function",
      "signature": "0x485cc955"
    },
    {
      "constant": false,
      "inputs": [
        {
          "name": "sender",
          "type": "address"
        }
      ],
      "name": "initialize",
      "outputs": [],
      "payable": false,
      "stateMutability": "nonpayable",
      "type": "function",
      "signature": "0xc4d66de8"
    },
    {
      "constant": true,
      "inputs": [
        {
          "name": "_id",
          "type": "uint256"
        }
      ],
      "name": "getRegistrationForId",
      "outputs": [
        {
          "name": "hash",
          "type": "bytes32"
        },
        {
          "name": "registrant",
          "type": "address"
        },
        {
          "name": "timestamp",
          "type": "uint256"
        }
      ],
      "payable": false,
      "stateMutability": "view",
      "type": "function",
      "signature": "0xf4bacf19"
    },
    {
      "constant": true,
      "inputs": [
        {
          "name": "_hash",
          "type": "bytes32"
        }
      ],
      "name": "getRegistrationForHash",
      "outputs": [
        {
          "name": "hash",
          "type": "bytes32"
        },
        {
          "name": "registrant",
          "type": "address"
        },
        {
          "name": "timestamp",
          "type": "uint256"
        }
      ],
      "payable": false,
      "stateMutability": "view",
      "type": "function",
      "signature": "0x6c1c66a7"
    },
    {
      "constant": true,
      "inputs": [
        {
          "name": "_registrant",
          "type": "address"
        }
      ],
      "name": "getIdsForAddress",
      "outputs": [
        {
          "name": "_ids",
          "type": "uint256[]"
        }
      ],
      "payable": false,
      "stateMutability": "view",
      "type": "function",
      "signature": "0x6518ee4f"
    }
  ],
  "bytecode": "0x60806040526066805460ff1916905534801561001a57600080fd5b50610e028061002a6000396000f3fe608060405234801561001057600080fd5b5060043610610112576000357c0100000000000000000000000000000000000000000000000000000000900480636518ee4f116100b45780638456cb59116100835780638456cb59146102e75780638f1de16e146102ef578063c4d66de81461030c578063f4bacf191461033257610112565b80636518ee4f146102005780636c1c66a7146102765780636ef8d66d146102b957806382dc1ec4146102c157610112565b80633f4ba83a116100f05780633f4ba83a1461018857806346fbf68e14610190578063485cc955146101ca5780635c975abb146101f857610112565b806306661abd1461014057806338af3eed1461015a5780633ccfd60b1461017e575b6040513031907f7bf73331357f58f7bffcf96c3411f3c03e687bd0bb958575e2f1d1cf1cb17faa90600090a2005b61014861034f565b60408051918252519081900360200190f35b610162610355565b60408051600160a060020a039092168252519081900360200190f35b610186610364565b005b610186610418565b6101b6600480360360208110156101a657600080fd5b5035600160a060020a0316610508565b604080519115158252519081900360200190f35b610186600480360360408110156101e057600080fd5b50600160a060020a0381358116916020013516610521565b6101b6610649565b6102266004803603602081101561021657600080fd5b5035600160a060020a0316610652565b60408051602080825283518183015283519192839290830191858101910280838360005b8381101561026257818101518382015260200161024a565b505050509050019250505060405180910390f35b6102936004803603602081101561028c57600080fd5b50356106be565b60408051938452600160a060020a03909216602084015282820152519081900360600190f35b6101866106e1565b610186600480360360208110156102d757600080fd5b5035600160a060020a03166106ec565b610186610757565b6101866004803603602081101561030557600080fd5b5035610849565b6101866004803603602081101561032257600080fd5b5035600160a060020a03166109d0565b6102936004803603602081101561034857600080fd5b5035610a7b565b609a5481565b609954600160a060020a031681565b609954600160a060020a031633146103b05760405160e560020a62461bcd028152600401808060200182810382526035815260200180610d746035913960400191505060405180910390fd5b609954604051600160a060020a0390911690303180156108fc02916000818181858888f193505050501580156103ea573d6000803e3d6000fd5b5060405133907f9c83dda3a4d55a3e890a8700226b60840862d0cfa5e73e4be7c1ed8c5684d36790600090a2565b61042133610508565b1515610477576040805160e560020a62461bcd02815260206004820152601b60248201527f4163636f756e7420686173206e6f2050617573657220726f6c652e0000000000604482015290519081900360640190fd5b60665460ff1615156104d3576040805160e560020a62461bcd02815260206004820152600f60248201527f4d757374206265207061757365642e0000000000000000000000000000000000604482015290519081900360640190fd5b6066805460ff191690556040517f49abf6fd2c0eb39a7c6c4c5fbdc6ba8711ab69ebbc4153dd9abff12ba2dc4c9890600090a1565b600061051b60338363ffffffff610aa616565b92915050565b600054610100900460ff168061053a575061053a610b16565b80610548575060005460ff16155b15156105885760405160e560020a62461bcd02815260040180806020018281038252602e815260200180610da9602e913960400191505060405180910390fd5b60008054600161010061ff00198316811760ff1916919091179092550460ff16600160a060020a03831615156105f6576040805160e560020a62461bcd0281526020600482015260186024820152600080516020610d54833981519152604482015290519081900360640190fd5b6105ff826109d0565b60998054600160a060020a0390941673ffffffffffffffffffffffffffffffffffffffff199094169390931790925550600080549115156101000261ff0019909216919091179055565b60665460ff1690565b600160a060020a0381166000908152609c60209081526040918290208054835181840281018401909452808452606093928301828280156106b257602002820191906000526020600020905b81548152602001906001019080831161069e575b50505050509050919050565b60008060006106d46106cf85610b1c565b610a7b565b9250925092509193909250565b6106ea33610b2e565b565b6106f533610508565b151561074b576040805160e560020a62461bcd02815260206004820152601b60248201527f4163636f756e7420686173206e6f2050617573657220726f6c652e0000000000604482015290519081900360640190fd5b61075481610b76565b50565b61076033610508565b15156107b6576040805160e560020a62461bcd02815260206004820152601b60248201527f4163636f756e7420686173206e6f2050617573657220726f6c652e0000000000604482015290519081900360640190fd5b60665460ff1615610811576040805160e560020a62461bcd02815260206004820152601160248201527f43616e6e6f74206265207061757365642e000000000000000000000000000000604482015290519081900360640190fd5b6066805460ff191660011790556040517f777ecb744cfc69794c3985ebff0496449aafc907c556f1d4003201beb364e80f90600090a1565b60665460ff16156108a4576040805160e560020a62461bcd02815260206004820152601160248201527f43616e6e6f74206265207061757365642e000000000000000000000000000000604482015290519081900360640190fd5b6108ad81610bbe565b1515610903576040805160e560020a62461bcd02815260206004820181905260248201527f54686973206861736820697320616c726561647920726567697374657265642e604482015290519081900360640190fd5b609a80546001908101918290556000838152609b6020908152604080832085905533808452609c83528184208054808701825590855283852001869055815160608101835287815280840182815242828501908152888752609d9095528386209151825551958101805473ffffffffffffffffffffffffffffffffffffffff1916600160a060020a03909716969096179095559151600290940193909355915183929185917fea855b9418bd90df811e70b5f3939608891f3eb1c5c4fe0ef92a5276397694da9190a45050565b600054610100900460ff16806109e957506109e9610b16565b806109f7575060005460ff16155b1515610a375760405160e560020a62461bcd02815260040180806020018281038252602e815260200180610da9602e913960400191505060405180910390fd5b60008054600161010061ff00198316811760ff1916919091179092550460ff16610a6082610bd1565b600080549115156101000261ff001990921691909117905550565b6000908152609d60205260409020805460018201546002909201549092600160a060020a0390921691565b6000600160a060020a0382161515610af6576040805160e560020a62461bcd0281526020600482015260186024820152600080516020610d54833981519152604482015290519081900360640190fd5b50600160a060020a03166000908152602091909152604090205460ff1690565b303b1590565b6000908152609b602052604090205490565b610b3f60338263ffffffff610c7016565b604051600160a060020a038216907fcd265ebaf09df2871cc7bd4133404a235ba12eff2041bb89d9c714a2621c7c7e90600090a250565b610b8760338263ffffffff610ce016565b604051600160a060020a038216907f6719d08c1888103bea251a4ed56406bd0c3e69723c8a1686e017e7bbe159b6f890600090a250565b6000908152609b60205260409020541590565b600054610100900460ff1680610bea5750610bea610b16565b80610bf8575060005460ff16155b1515610c385760405160e560020a62461bcd02815260040180806020018281038252602e815260200180610da9602e913960400191505060405180910390fd5b60008054600161010061ff00198316811760ff1916919091179092550460ff16610c6182610508565b1515610a6057610a6082610b76565b600160a060020a0381161515610cbe576040805160e560020a62461bcd0281526020600482015260186024820152600080516020610d54833981519152604482015290519081900360640190fd5b600160a060020a0316600090815260209190915260409020805460ff19169055565b600160a060020a0381161515610d2e576040805160e560020a62461bcd0281526020600482015260186024820152600080516020610d54833981519152604482015290519081900360640190fd5b600160a060020a0316600090815260209190915260409020805460ff1916600117905556fe43616e6e6f7420616464207a65726f20616464726573732e00000000000000004f6e6c792074686520636f6e74726163742062656e65666963696172792063616e2063616c6c20746869732066756e6374696f6e2e436f6e747261637420696e7374616e63652068617320616c7265616479206265656e20696e697469616c697a6564a165627a7a72305820c9765514f087cbdba540d59b33a529702bd49d4fbd43678a9e53531f8670a0090029",
  "source": "pragma solidity >=0.5.0 <0.6.0;\n\nimport \"zos-lib/contracts/Initializable.sol\";\nimport \"../installed_contracts/lifecycle/Pausable.sol\";\n\n\n/** @title ProofOfExistence\n  * @author David Minarsch\n  * @notice A contract to register hashes of data as a proof of existence of the data at a given point in time.\n*/\ncontract ProofOfExistence is Initializable, Pausable {\n\n    address payable public beneficiary;\n    uint public count;\n    mapping ( bytes32 => uint ) private hashToId;\n    mapping ( address => uint[] ) private registrantToIds;\n    \n    struct Registration {\n        bytes32 hash;\n        address registrant;\n        uint timestamp;\n    }\n    \n    mapping ( uint => Registration ) private idToRegistration;\n    // Do not change above variable declarations during contract upgrades.\n    // All new variables introduced during contract upgrades must be declared below!\n\n    event LogRegistration(bytes32 indexed _hash, address indexed _registrant, uint indexed _id);\n    event LogWithdrawal(address indexed _hash);\n    event LogForcefulDonation(uint indexed _balance);\n\n    // @dev Fallback to accept only ether sent to it forcefully.\n    function () external {\n        emit LogForcefulDonation(address(this).balance);\n    }\n\n    // @dev Function to withdraw ether sent forcefully to the contract for the beneficiary\n    function withdraw()\n        external\n    {\n        // We could check the beneficiary is calling this function; but we could also not since if someone else \n        // calls this function we don't have to pay the gas fee so we might not actually care.\n        require(msg.sender == beneficiary, \"Only the contract beneficiary can call this function.\");\n\n        // Send the amount to the beneficiary\n        beneficiary.transfer(address(this).balance);\n        emit LogWithdrawal(msg.sender);\n    }\n\n    /** @dev Pausable function to register hash\n      * @param _hash The IPFS hash.\n    */\n    function registerHash(bytes32 _hash) \n        external\n        whenNotPaused()\n    {\n        require(isNotRegistered(_hash), \"This hash is already registered.\");\n        count += 1;\n        uint _id = count;\n        hashToId[_hash] = _id;\n        registrantToIds[msg.sender].push(_id);\n        idToRegistration[_id] = Registration(_hash, msg.sender, now);\n        emit LogRegistration(_hash, msg.sender, _id);\n    }\n\n    /** @dev Contract constructor (replacing standard Solidity constructor in adherence to\n        ZeppelinOS guidelines) to set beneficiary\n      * @param _beneficiary The beneficiary of the contract.\n      * @param _pauser The pauser of the contract.\n    */\n    function initialize (address payable _beneficiary, address _pauser)\n        public\n        initializer\n    {\n        require(_beneficiary != address(0), \"Cannot add zero address.\");\n        Pausable.initialize(_pauser);\n        beneficiary = _beneficiary;\n    }\n\n    /** @dev Function which returns all registration data given an id.\n      * @param _id of file.\n      * @return hash The IPFS hash.\n      * @return registrant The address of the registrant.\n      * @return timestamp The timestamp when the registered happened.\n    */\n    function getRegistrationForId(uint _id)\n        public\n        view\n        returns (bytes32 hash, address registrant, uint timestamp)\n    {\n        return (idToRegistration[_id].hash, idToRegistration[_id].registrant, idToRegistration[_id].timestamp);\n    }\n\n    /** @dev Function which returns all registration data given a hash.\n      * @param _hash The IPFS hash.\n      * @return hash The IPFS hash.\n      * @return registrant The address of file registrant.\n      * @return timestamp The timestamp when file was registered.\n    */\n    function getRegistrationForHash(bytes32 _hash)\n        public\n        view\n        returns (bytes32 hash, address registrant, uint timestamp)\n    {\n        return getRegistrationForId(getIdForHash(_hash));\n    }\n\n    /** @dev Function which returns all ids for an address\n      * @param _registrant Address of registrant.\n      * @return _ids Array of ids.\n    */\n    function getIdsForAddress(address _registrant)\n        public\n        view\n        returns (uint[] memory _ids)\n    {\n        return registrantToIds[_registrant];\n    }\n\n    /** @dev Function which returns id given a hash.\n      * @param _hash The IPFS hash.\n      * @return id The id.\n    */\n    function getIdForHash(bytes32 _hash)\n        internal\n        view\n        returns (uint id)\n    {\n        return hashToId[_hash];\n    }\n\n    /** @dev Function to check that a hash is not registered.\n      * @param _hash The IPFS hash\n      * @return boolean\n    */\n    function isNotRegistered(bytes32 _hash) \n        internal\n        view\n        returns (bool)\n    {\n        return hashToId[_hash] == 0;\n    }\n}\n",
  "sourcePath": "/Users/davidminarsch/final-project-DavidMinarsch/contracts/ProofOfExistence.sol",
  "compiler": {
    "name": "solc",
    "version": "0.5.2+commit.1df8f40c.Emscripten.clang"
  },
  "schemaVersion": "3.0.0",
  "updatedAt": "2019-01-22T18:54:24.536Z",
  "devdoc": {
    "author": "David Minarsch",
    "methods": {
      "getIdsForAddress(address)": {
        "details": "Function which returns all ids for an address",
        "params": {
          "_registrant": "Address of registrant."
        },
        "return": "_ids Array of ids."
      },
      "getRegistrationForHash(bytes32)": {
        "details": "Function which returns all registration data given a hash.",
        "params": {
          "_hash": "The IPFS hash."
        },
        "return": "hash The IPFS hash.registrant The address of file registrant.timestamp The timestamp when file was registered."
      },
      "getRegistrationForId(uint256)": {
        "details": "Function which returns all registration data given an id.",
        "params": {
          "_id": "of file."
        },
        "return": "hash The IPFS hash.registrant The address of the registrant.timestamp The timestamp when the registered happened."
      },
      "initialize(address,address)": {
        "details": "Contract constructor (replacing standard Solidity constructor in adherence to ZeppelinOS guidelines) to set beneficiary",
        "params": {
          "_beneficiary": "The beneficiary of the contract.",
          "_pauser": "The pauser of the contract."
        }
      },
      "pause()": {
        "details": "called by the owner to pause, triggers stopped state"
      },
      "paused()": {
        "return": "true if the contract is paused, false otherwise."
      },
      "registerHash(bytes32)": {
        "details": "Pausable function to register hash",
        "params": {
          "_hash": "The IPFS hash."
        }
      },
      "unpause()": {
        "details": "called by the owner to unpause, returns to normal state"
      }
    },
    "title": "ProofOfExistence"
  },
  "userdoc": {
    "methods": {},
    "notice": "A contract to register hashes of data as a proof of existence of the data at a given point in time."
  }
}